S011000070726F6A65637420322E73726563CA
S11300000C942A000C9434000C9434000C943400A6
S11300100C9434000C9434000C9434000C9434008C
S11300200C9434000C9434000C9434000C9434007C
S11300300C9434000C9434000C9434000C9434006C
S11300400C9434000C9434000C9434000C9434005C
S11300500C94340011241FBECFE5D8E0DEBFCDBF21
S11300600E9442000C9463010C94000041E00E9441
S1130070A800089540E00E94A800089541E00E946D
S11300806500089561E470E082E090E00E943E0023
S113009087E090E00E94EB0061E470E082E090E091
S11300A00E94360060E070E080E09FE30E9430012F
S11300B061E470E082E090E00E943A0060E070E069
S11300C080E09FE30E943001E7CF633429F118F404
S11300D0613431F00895643469F1623679F0089539
S11300E0413029F46AE370E00E944A010895411105
S11300F02EC06AE370E00E9456010895413029F44D
S113010067E370E00E944A010895411120C067E34B
S113011070E00E9456010895413029F464E370E0D0
S11301200E944A010895411112C064E370E00E94E4
S113013056010895413029F461E370E00E944A01B8
S11301400895411104C061E370E00E9456010895CE
S11301506234B9F018F4613431F008956334F9F07D
S1130160643459F10895413029F46BE370E00E943E
S11301704A01089541112EC06BE370E00E945601BC
S11301800895413029F468E370E00E944A0108951B
S1130190411120C068E370E00E9456010895413087
S11301A029F465E370E00E944A010895411112C0E8
S11301B065E370E00E9456010895413029F462E33A
S11301C070E00E944A010895411104C062E370E0A6
S11301D00E94560108956BE570E00E944A017894EC
S11301E0089588309105D1F028F4009779F00197AB
S11301F079F00895811521E0920709F1811524E031
S1130200920719F18034910551F50EC013BE08957B
S113021063E570E080E00E944A01089563E570E0C0
S113022081E00E944A01089563E570E080E00E9445
S11302304A0163E570E081E00E944A01089563E5A4
S113024070E080E00E944A01089563E570E080E078
S11302500E944A0163E570E082E00E944A01089529
S1130260CF93DF9381E090E00E94F100C0E0D0E002
S113027009C008B600FEFDCF68E570E080E00E948A
S11302804A012196C03D87E0D80798F313BEDF9159
S1130290CF910895FB01908121E030E002C0220F4C
S11302A0331F8A95E2F7292B20830895FB0190815F
S11302B021E030E002C0220F331F8A95E2F7209537
S10D02C0292320830895F894FFCF4A
S9030000FC
