S010000050726F6A656374322E737265630B
S11300000C942A000C9421010C943C000C943C00A8
S11300100C943C000C943C000C943C000C943C006C
S11300200C943C000C943C000C943C000C943C005C
S11300300C943C000C943C000C943C000C943C004C
S11300400C943C000C943C000C943C000C943C003C
S11300500C943C0011241FBECFE5D8E0DEBFCDBF19
S113006020E0A0E6B0E001C01D92A936B207E1F796
S11300700E94E8010C9461040C94000061E482E0A5
S11300800E949F0161E481E00E949F0161E480E09D
S11300900E949F0162E482E00E949F0162E481E089
S11300A00E949F0162E480E00E949F0140E064E4BA
S11300B082E00E94900186E00E94980263E086E05C
S11300C00E949E0208950F931F9362E481E00E94B0
S11300D0980162E482E00E94980162E480E00E9458
S11300E0980161E482E00E94940162E480E00E944D
S11300F0940188E893E10E94550361E482E00E9440
S1130100980162E480E00E94980105E010E022E496
S113011041E061E481E00E94C00161E481E00E9469
S1130120980162E481E00E94980162E482E00E9406
S1130130940161E480E00E94940188E893E10E94C4
S1130140550361E480E00E94980162E482E00E9429
S1130150980145E050E061E481E00E94A30161E47C
S113016081E00E9498011F910F9108950F931F93AE
S113017062E480E00E94940105E010E022E441E0A2
S113018061E481E00E94C00161E481E00E94980181
S113019062E481E00E94980162E480E00E94980198
S11301A061E480E00E94940162E482E00E94940190
S11301B088E893E10E9455031F910F9108950F93CE
S11301C01F9361E480E00E94980162E482E00E944F
S11301D0980105E010E022E441E061E481E00E943E
S11301E0C00161E481E00E94980162E481E00E9420
S11301F0980161E482E00E94940162E480E00E943C
S113020094011F910F91089580916300813021F032
S1130210A8F0823041F0F8CF109265001092680087
S11302200E946300F1CF109268000E94B6000E9401
S1130230DF001092650010926300E6CF0E94630015
S1130240E3CF1F920F920FB60F9211242F933F9377
S11302504F935F936F937F938F939F93AF93BF93CA
S1130260EF93FF9381E08093680080916500813073
S113027019F48F5F809365008091650081113DC002
S113028042E650E06BE370E00E94D30347E650E09F
S11302906BE370E082E00E94D30346E650E06BE338
S11302A070E081E00E94D30380916700813021F0E7
S11302B080916600813041F482E0809363008091F4
S11302C065008F5F8093650080916400813049F4FC
S11302D082E080936300809165008F5F8093650066
S11302E00EC080916200813051F48093630080914C
S11302F065008E5F8093650002C010926500FF91D7
S1130300EF91BF91AF919F918F917F916F915F9189
S11303104F913F912F910F900FBE0F901F90189502
S113032040E00E94EF01089541E00E9432020895E6
S113033040E00E94320208950E947502089541E04F
S11303400E94EF0108950F931F93CF93DF93082F1B
S1130350162FEA010CC081E080936400612F802F86
S11303600E949C0188EE93E00E94550321972097F8
S113037091F710926400DF91CF911F910F9108952E
S1130380EF92FF920F931F93CF93DF93E82EF62EF5
S1130390D42FC22F11C081E0809364006F2D8E2D65
S11303A00E949C016C2F8D2F0E949C0188EE93E08B
S11303B00E945503015011090115110561F71092AE
S11303C06400DF91CF911F910F91FF90EF900895FA
S11303D00E943E000E94040180E090E0089562348F
S11303E0B9F018F4613431F008956334F9F06434E9
S11303F059F10895413029F46AE370E00E94BA0388
S1130400089541112EC06AE370E00E94C603089566
S1130410413029F467E370E00E94BA030895411162
S113042020C067E370E00E94C6030895413029F4B8
S113043064E370E00E94BA030895411112C064E3BA
S113044070E00E94C6030895413029F461E370E02E
S11304500E94BA030895411104C061E370E00E9450
S1130460C60308956234B9F018F4613431F0089584
S11304706334F9F0643459F10895413029F46BE39D
S113048070E00E94BA03089541112EC06BE370E03E
S11304900E94C6030895413029F468E370E00E9485
S11304A0BA030895411120C068E370E00E94C603B6
S11304B00895413029F465E370E00E94BA03089579
S11304C0411112C065E370E00E94C60308954130F3
S11304D029F462E370E00E94BA030895411104C054
S11304E062E370E00E94C6030895623479F018F460
S11304F0613431F00895633479F0643499F00895E7
S113050041E469E370E00E94EB03089542E466E38A
S113051070E00E94EB03089543E463E370E00E94FB
S1130520EB03089544E460E370E00E94EB03089554
S11305306BE570E00E94BA0378940895863019F050
S11305408730A9F10895613089F028F06230C9F04C
S1130550633011F1089565E570E080E00E94C60300
S113056065E570E081E00E94C603089565E570E0EA
S113057080E00E94BA0365E570E081E00E94C60352
S1130580089565E570E081E00E94BA0365E570E0D6
S113059080E00E94C603089565E570E081E00E9452
S11305A0BA0365E570E080E00E94BA030895613003
S11305B089F028F06230C9F0633011F1089565E5DF
S11305C070E082E00E94C60365E570E083E00E946B
S11305D0C603089565E570E082E00E94BA0365E50C
S11305E070E083E00E94C603089565E570E083E04F
S11305F00E94BA0365E570E082E00E94C603089594
S113060065E570E083E00E94BA0365E570E082E08E
S11306100E94BA030895692F70E06F5F7F4F0E94B4
S11306204D04619562BF089588309105D1F028F496
S1130630009779F0019779F00895811521E09207E8
S113064009F1811524E0920719F18034910551F5DF
S11306500EC013BE089563E570E080E00E94BA0303
S1130660089563E570E081E00E94BA03089563E5AC
S113067070E080E00E94BA0363E570E081E00E94CC
S1130680BA03089563E570E080E00E94BA03089518
S113069063E570E080E00E94BA0363E570E082E005
S11306A00E94BA03089513BE0895FF920F931F93F7
S11306B0CF93DF93F92E0E940B0381E090E00E9418
S11306C01403809168008130A9F480916500813021
S11306D089F48F2D90E0019648EE53E0849F9001B9
S11306E0859F300D949F300D112430936100209329
S11306F0600022C010926100109260001DC008B614
S113070000FEFDCF68E570E080E00E94BA038091AE
S11307106000909161000196909361008093600065
S113072080916800813041F480916500813021F42A
S11307301093610000936000CF2D80E0D82F9E01BC
S11307402F5F3F4F88EE93E0289F8001299F100D73
S1130750389F100D112480916000909161008017E2
S1130760910768F20E945303DF91CF911F910F917B
S1130770FF900895FB01908121E030E002C0220F38
S1130780331F8A95E2F7292B20830895FB0190817A
S113079021E030E002C0220F331F8A95E2F7209552
S11307A0292320830895FB01908121E030E0B901E1
S11307B0082E02C0660F771F0A94E2F7292F30E053
S11307C026233723B90102C0759567958A95E2F708
S11307D0FA01608308950F931F93CF93DF931F92C1
S11307E0CDB7DEB7082F142FAE014F5F5F4F0E94C5
S11307F0D3031234D1F018F4113431F048C0133457
S113080029F11434A1F143C08981813031F46BE3BF
S113081070E0802F0E94C6033AC0811138C06BE398
S113082070E0802F0E94BA0332C08981813031F494
S113083068E370E0802F0E94C60329C0811127C09D
S113084068E370E0802F0E94BA0321C0898181305F
S113085031F465E370E0802F0E94C60318C0811153
S113086016C065E370E0802F0E94BA0310C089812E
S1130870813031F462E370E0802F0E94C60307C028
S1130880811105C062E370E0802F0E94BA030F90CB
S1130890DF91CF911F910F910895AA1BBB1B51E1CA
S11308A007C0AA1FBB1FA617B70710F0A61BB70BDC
S11308B0881F991F5A95A9F780959095BC01CD0181
S10908C00895F894FFCF37
S9030000FC
